{
  "_format": "hh-sol-artifact-1",
  "contractName": "Queue",
  "sourceName": "contracts/Queue.sol",
  "abi": [
    {
      "inputs": [],
      "stateMutability": "payable",
      "type": "constructor"
    },
    {
      "anonymous": false,
      "inputs": [
        {
          "indexed": true,
          "internalType": "address",
          "name": "prompter",
          "type": "address"
        },
        {
          "indexed": false,
          "internalType": "uint256",
          "name": "indexStory",
          "type": "uint256"
        },
        {
          "indexed": false,
          "internalType": "uint256",
          "name": "indexPrompt",
          "type": "uint256"
        },
        {
          "indexed": false,
          "internalType": "string",
          "name": "prompt",
          "type": "string"
        },
        {
          "indexed": false,
          "internalType": "string",
          "name": "uri",
          "type": "string"
        }
      ],
      "name": "PromptAdded",
      "type": "event"
    },
    {
      "anonymous": false,
      "inputs": [
        {
          "indexed": true,
          "internalType": "address",
          "name": "prompter",
          "type": "address"
        },
        {
          "indexed": false,
          "internalType": "uint256",
          "name": "indexStory",
          "type": "uint256"
        },
        {
          "indexed": false,
          "internalType": "string",
          "name": "prompt",
          "type": "string"
        },
        {
          "indexed": false,
          "internalType": "string",
          "name": "uri",
          "type": "string"
        }
      ],
      "name": "StoryAdded",
      "type": "event"
    },
    {
      "anonymous": false,
      "inputs": [
        {
          "indexed": true,
          "internalType": "address",
          "name": "setter",
          "type": "address"
        },
        {
          "indexed": false,
          "internalType": "uint256",
          "name": "indexStory",
          "type": "uint256"
        },
        {
          "indexed": false,
          "internalType": "uint256",
          "name": "indexPrompt",
          "type": "uint256"
        },
        {
          "indexed": false,
          "internalType": "string",
          "name": "prompt",
          "type": "string"
        },
        {
          "indexed": false,
          "internalType": "string",
          "name": "uri",
          "type": "string"
        }
      ],
      "name": "UriSet",
      "type": "event"
    },
    {
      "inputs": [
        {
          "internalType": "uint256",
          "name": "index",
          "type": "uint256"
        }
      ],
      "name": "getLastPromptForStory",
      "outputs": [
        {
          "components": [
            {
              "internalType": "string",
              "name": "prompt",
              "type": "string"
            },
            {
              "internalType": "string",
              "name": "uri",
              "type": "string"
            }
          ],
          "internalType": "struct Queue.Prompt",
          "name": "",
          "type": "tuple"
        }
      ],
      "stateMutability": "view",
      "type": "function"
    },
    {
      "inputs": [
        {
          "internalType": "uint256",
          "name": "indexStory",
          "type": "uint256"
        },
        {
          "internalType": "uint256",
          "name": "indexPrompt",
          "type": "uint256"
        }
      ],
      "name": "getPrompt",
      "outputs": [
        {
          "components": [
            {
              "internalType": "string",
              "name": "prompt",
              "type": "string"
            },
            {
              "internalType": "string",
              "name": "uri",
              "type": "string"
            }
          ],
          "internalType": "struct Queue.Prompt",
          "name": "",
          "type": "tuple"
        }
      ],
      "stateMutability": "view",
      "type": "function"
    },
    {
      "inputs": [
        {
          "internalType": "uint256",
          "name": "index",
          "type": "uint256"
        }
      ],
      "name": "getPrompts",
      "outputs": [
        {
          "components": [
            {
              "internalType": "string",
              "name": "prompt",
              "type": "string"
            },
            {
              "internalType": "string",
              "name": "uri",
              "type": "string"
            }
          ],
          "internalType": "struct Queue.Prompt[]",
          "name": "prompts",
          "type": "tuple[]"
        }
      ],
      "stateMutability": "view",
      "type": "function"
    },
    {
      "inputs": [
        {
          "internalType": "uint256",
          "name": "index",
          "type": "uint256"
        }
      ],
      "name": "getPromptsLength",
      "outputs": [
        {
          "internalType": "uint256",
          "name": "",
          "type": "uint256"
        }
      ],
      "stateMutability": "view",
      "type": "function"
    },
    {
      "inputs": [],
      "name": "getStories",
      "outputs": [
        {
          "internalType": "string[]",
          "name": "allStories",
          "type": "string[]"
        }
      ],
      "stateMutability": "view",
      "type": "function"
    },
    {
      "inputs": [],
      "name": "getStoriesLength",
      "outputs": [
        {
          "internalType": "uint256",
          "name": "",
          "type": "uint256"
        }
      ],
      "stateMutability": "view",
      "type": "function"
    },
    {
      "inputs": [
        {
          "internalType": "uint256",
          "name": "index",
          "type": "uint256"
        },
        {
          "internalType": "string",
          "name": "value",
          "type": "string"
        }
      ],
      "name": "pushPrompt",
      "outputs": [],
      "stateMutability": "nonpayable",
      "type": "function"
    },
    {
      "inputs": [
        {
          "internalType": "uint256",
          "name": "index",
          "type": "uint256"
        },
        {
          "internalType": "string",
          "name": "value",
          "type": "string"
        },
        {
          "internalType": "string",
          "name": "uri",
          "type": "string"
        }
      ],
      "name": "pushPromptElement",
      "outputs": [],
      "stateMutability": "nonpayable",
      "type": "function"
    },
    {
      "inputs": [
        {
          "internalType": "string",
          "name": "value",
          "type": "string"
        }
      ],
      "name": "pushStory",
      "outputs": [],
      "stateMutability": "nonpayable",
      "type": "function"
    },
    {
      "inputs": [
        {
          "internalType": "uint256",
          "name": "indexStory",
          "type": "uint256"
        },
        {
          "internalType": "uint256",
          "name": "indexPrompt",
          "type": "uint256"
        },
        {
          "internalType": "string",
          "name": "value",
          "type": "string"
        }
      ],
      "name": "setUri",
      "outputs": [],
      "stateMutability": "nonpayable",
      "type": "function"
    }
  ],
  "bytecode": "0x608060405261182c806100136000396000f3fe608060405234801561001057600080fd5b506004361061009e5760003560e01c80638a7b5dc7116100665780638a7b5dc7146101815780639d210bdd1461019d578063db814625146101bb578063df9e36dc146101d7578063fd441c02146101f35761009e565b80630a6d50c6146100a35780630fc9eccd146100d3578063239c95fe14610103578063434449d01461013357806386b3e54414610151575b600080fd5b6100bd60048036038101906100b89190610daf565b61020f565b6040516100ca9190610ecc565b60405180910390f35b6100ed60048036038101906100e89190610eee565b610380565b6040516100fa9190611021565b60405180910390f35b61011d60048036038101906101189190610eee565b61058f565b60405161012a9190611052565b60405180910390f35b61013b6105ae565b604051610148919061112f565b60405180910390f35b61016b60048036038101906101669190610eee565b61070d565b6040516101789190610ecc565b60405180910390f35b61019b60048036038101906101969190611286565b61089e565b005b6101a56109a4565b6040516101b29190611052565b60405180910390f35b6101d560048036038101906101d09190611311565b6109ae565b005b6101f160048036038101906101ec9190611380565b610a85565b005b61020d600480360381019061020891906113c9565b610b96565b005b610217610ca8565b600080848152602001908152602001600020828154811061023b5761023a611425565b5b906000526020600020906002020160405180604001604052908160008201805461026490611483565b80601f016020809104026020016040519081016040528092919081815260200182805461029090611483565b80156102dd5780601f106102b2576101008083540402835291602001916102dd565b820191906000526020600020905b8154815290600101906020018083116102c057829003601f168201915b505050505081526020016001820180546102f690611483565b80601f016020809104026020016040519081016040528092919081815260200182805461032290611483565b801561036f5780601f106103445761010080835404028352916020019161036f565b820191906000526020600020905b81548152906001019060200180831161035257829003601f168201915b505050505081525050905092915050565b6060600061038d8361058f565b90508067ffffffffffffffff8111156103a9576103a861115b565b5b6040519080825280602002602001820160405280156103e257816020015b6103cf610ca8565b8152602001906001900390816103c75790505b50915060005b81811015610588576000806000868152602001908152602001600020828154811061041657610415611425565b5b906000526020600020906002020190508060405180604001604052908160008201805461044290611483565b80601f016020809104026020016040519081016040528092919081815260200182805461046e90611483565b80156104bb5780601f10610490576101008083540402835291602001916104bb565b820191906000526020600020905b81548152906001019060200180831161049e57829003601f168201915b505050505081526020016001820180546104d490611483565b80601f016020809104026020016040519081016040528092919081815260200182805461050090611483565b801561054d5780601f106105225761010080835404028352916020019161054d565b820191906000526020600020905b81548152906001019060200180831161053057829003601f168201915b50505050508152505084838151811061056957610568611425565b5b6020026020010181905250508080610580906114e4565b9150506103e8565b5050919050565b6000806000838152602001908152602001600020805490509050919050565b60606105b86109a4565b67ffffffffffffffff8111156105d1576105d061115b565b5b60405190808252806020026020018201604052801561060457816020015b60608152602001906001900390816105ef5790505b50905060005b6106126109a4565b8110156107095760008082815260200190815260200160002060008154811061063e5761063d611425565b5b9060005260206000209060020201600001805461065a90611483565b80601f016020809104026020016040519081016040528092919081815260200182805461068690611483565b80156106d35780601f106106a8576101008083540402835291602001916106d3565b820191906000526020600020905b8154815290600101906020018083116106b657829003601f168201915b50505050508282815181106106eb576106ea611425565b5b60200260200101819052508080610701906114e4565b91505061060a565b5090565b610715610ca8565b600080838152602001908152602001600020600160008085815260200190815260200160002080549050610749919061152d565b8154811061075a57610759611425565b5b906000526020600020906002020160405180604001604052908160008201805461078390611483565b80601f01602080910402602001604051908101604052809291908181526020018280546107af90611483565b80156107fc5780601f106107d1576101008083540402835291602001916107fc565b820191906000526020600020905b8154815290600101906020018083116107df57829003601f168201915b5050505050815260200160018201805461081590611483565b80601f016020809104026020016040519081016040528092919081815260200182805461084190611483565b801561088e5780601f106108635761010080835404028352916020019161088e565b820191906000526020600020905b81548152906001019060200180831161087157829003601f168201915b5050505050815250509050919050565b6000808481526020019081526020016000206040518060400160405280848152602001838152509080600181540180825580915050600190039060005260206000209060020201600090919091909150600082015181600001908051906020019061090a929190610cc2565b506020820151816001019080519060200190610927929190610cc2565b5050503373ffffffffffffffffffffffffffffffffffffffff167fb1e1928d50466679f02797d4d5425f4c6d23a265b084605b291026b878f3b27c84600160008088815260200190815260200160002080549050610985919061152d565b858560405161099794939291906115ab565b60405180910390a2505050565b6000600154905090565b8060008085815260200190815260200160002083815481106109d3576109d2611425565b5b906000526020600020906002020160010190805190602001906109f7929190610cc2565b503373ffffffffffffffffffffffffffffffffffffffff167f78c7119560b002b34319b8b7a36528ea5b71741873beb1255a7aabe2eb389b1184846000808881526020019081526020016000208681548110610a5657610a55611425565b5b906000526020600020906002020160000185604051610a789493929190611693565b60405180910390a2505050565b600080600154815260200190815260200160002060405180604001604052808381526020016040518060200160405280600081525081525090806001815401808255809150506001900390600052602060002090600202016000909190919091506000820151816000019080519060200190610b02929190610cc2565b506020820151816001019080519060200190610b1f929190610cc2565b50505060018054610b3091906116e6565b6001819055503373ffffffffffffffffffffffffffffffffffffffff167f2c834c8f3de9363691f4d76e80f7f3e624e006c140e3aa9432d3174ff80e94e760018054610b7c919061152d565b83604051610b8b929190611762565b60405180910390a250565b60008083815260200190815260200160002060405180604001604052808381526020016040518060200160405280600081525081525090806001815401808255809150506001900390600052602060002090600202016000909190919091506000820151816000019080519060200190610c11929190610cc2565b506020820151816001019080519060200190610c2e929190610cc2565b5050503373ffffffffffffffffffffffffffffffffffffffff167fb1e1928d50466679f02797d4d5425f4c6d23a265b084605b291026b878f3b27c83600160008087815260200190815260200160002080549050610c8c919061152d565b84604051610c9c939291906117a5565b60405180910390a25050565b604051806040016040528060608152602001606081525090565b828054610cce90611483565b90600052602060002090601f016020900481019282610cf05760008555610d37565b82601f10610d0957805160ff1916838001178555610d37565b82800160010185558215610d37579182015b82811115610d36578251825591602001919060010190610d1b565b5b509050610d449190610d48565b5090565b5b80821115610d61576000816000905550600101610d49565b5090565b6000604051905090565b600080fd5b600080fd5b6000819050919050565b610d8c81610d79565b8114610d9757600080fd5b50565b600081359050610da981610d83565b92915050565b60008060408385031215610dc657610dc5610d6f565b5b6000610dd485828601610d9a565b9250506020610de585828601610d9a565b9150509250929050565b600081519050919050565b600082825260208201905092915050565b60005b83811015610e29578082015181840152602081019050610e0e565b83811115610e38576000848401525b50505050565b6000601f19601f8301169050919050565b6000610e5a82610def565b610e648185610dfa565b9350610e74818560208601610e0b565b610e7d81610e3e565b840191505092915050565b60006040830160008301518482036000860152610ea58282610e4f565b91505060208301518482036020860152610ebf8282610e4f565b9150508091505092915050565b60006020820190508181036000830152610ee68184610e88565b905092915050565b600060208284031215610f0457610f03610d6f565b5b6000610f1284828501610d9a565b91505092915050565b600081519050919050565b600082825260208201905092915050565b6000819050602082019050919050565b60006040830160008301518482036000860152610f648282610e4f565b91505060208301518482036020860152610f7e8282610e4f565b9150508091505092915050565b6000610f978383610f47565b905092915050565b6000602082019050919050565b6000610fb782610f1b565b610fc18185610f26565b935083602082028501610fd385610f37565b8060005b8581101561100f5784840389528151610ff08582610f8b565b9450610ffb83610f9f565b925060208a01995050600181019050610fd7565b50829750879550505050505092915050565b6000602082019050818103600083015261103b8184610fac565b905092915050565b61104c81610d79565b82525050565b60006020820190506110676000830184611043565b92915050565b600081519050919050565b600082825260208201905092915050565b6000819050602082019050919050565b60006110a58383610e4f565b905092915050565b6000602082019050919050565b60006110c58261106d565b6110cf8185611078565b9350836020820285016110e185611089565b8060005b8581101561111d57848403895281516110fe8582611099565b9450611109836110ad565b925060208a019950506001810190506110e5565b50829750879550505050505092915050565b6000602082019050818103600083015261114981846110ba565b905092915050565b600080fd5b600080fd5b7f4e487b7100000000000000000000000000000000000000000000000000000000600052604160045260246000fd5b61119382610e3e565b810181811067ffffffffffffffff821117156111b2576111b161115b565b5b80604052505050565b60006111c5610d65565b90506111d1828261118a565b919050565b600067ffffffffffffffff8211156111f1576111f061115b565b5b6111fa82610e3e565b9050602081019050919050565b82818337600083830152505050565b6000611229611224846111d6565b6111bb565b90508281526020810184848401111561124557611244611156565b5b611250848285611207565b509392505050565b600082601f83011261126d5761126c611151565b5b813561127d848260208601611216565b91505092915050565b60008060006060848603121561129f5761129e610d6f565b5b60006112ad86828701610d9a565b935050602084013567ffffffffffffffff8111156112ce576112cd610d74565b5b6112da86828701611258565b925050604084013567ffffffffffffffff8111156112fb576112fa610d74565b5b61130786828701611258565b9150509250925092565b60008060006060848603121561132a57611329610d6f565b5b600061133886828701610d9a565b935050602061134986828701610d9a565b925050604084013567ffffffffffffffff81111561136a57611369610d74565b5b61137686828701611258565b9150509250925092565b60006020828403121561139657611395610d6f565b5b600082013567ffffffffffffffff8111156113b4576113b3610d74565b5b6113c084828501611258565b91505092915050565b600080604083850312156113e0576113df610d6f565b5b60006113ee85828601610d9a565b925050602083013567ffffffffffffffff81111561140f5761140e610d74565b5b61141b85828601611258565b9150509250929050565b7f4e487b7100000000000000000000000000000000000000000000000000000000600052603260045260246000fd5b7f4e487b7100000000000000000000000000000000000000000000000000000000600052602260045260246000fd5b6000600282049050600182168061149b57607f821691505b602082108114156114af576114ae611454565b5b50919050565b7f4e487b7100000000000000000000000000000000000000000000000000000000600052601160045260246000fd5b60006114ef82610d79565b91507fffffffffffffffffffffffffffffffffffffffffffffffffffffffffffffffff821415611522576115216114b5565b5b600182019050919050565b600061153882610d79565b915061154383610d79565b925082821015611556576115556114b5565b5b828203905092915050565b600082825260208201905092915050565b600061157d82610def565b6115878185611561565b9350611597818560208601610e0b565b6115a081610e3e565b840191505092915050565b60006080820190506115c06000830187611043565b6115cd6020830186611043565b81810360408301526115df8185611572565b905081810360608301526115f38184611572565b905095945050505050565b60008190508160005260206000209050919050565b6000815461162081611483565b61162a8186611561565b9450600182166000811461164557600181146116575761168a565b60ff198316865260208601935061168a565b611660856115fe565b60005b8381101561168257815481890152600182019150602081019050611663565b808801955050505b50505092915050565b60006080820190506116a86000830187611043565b6116b56020830186611043565b81810360408301526116c78185611613565b905081810360608301526116db8184611572565b905095945050505050565b60006116f182610d79565b91506116fc83610d79565b9250827fffffffffffffffffffffffffffffffffffffffffffffffffffffffffffffffff03821115611731576117306114b5565b5b828201905092915050565b50565b600061174c600083611561565b91506117578261173c565b600082019050919050565b60006060820190506117776000830185611043565b81810360208301526117898184611572565b9050818103604083015261179c8161173f565b90509392505050565b60006080820190506117ba6000830186611043565b6117c76020830185611043565b81810360408301526117d98184611572565b905081810360608301526117ec8161173f565b905094935050505056fea2646970667358221220a4f7c9e6e5b8efb9d87cfe78cfbee73834e64091284a4d4249d101e231684fb964736f6c63430008090033",
  "linkReferences": {},
  "deployedLinkReferences": {}
}